:1000000012C02CC02BC02AC029C028C027C026C0BF
:1000100025C024C023C022C021C020C01FC01EC0D4
:100020001DC01CC01BC011241FBECFE5D4E0DEBF25
:10003000CDBF10E0A0E6B0E0E0E4F1E002C0059042
:100040000D92AE37B107D9F710E0AEE7B0E001C0CE
:100050001D92A438B107E1F718D071C0D1CFCF936A
:10006000C82F8A3011F48DE0FADF5D9BFECFCCB94A
:1000700080E090E0CF91089510BC87E689B9599847
:1000800086E880BD88E18AB90895CFE5D4E0DEBF77
:10009000CDBFA39AF1DF8FE690E09093810080932B
:1000A0008000AB9A28E833E180E991E00197F1F70D
:1000B00021503040C9F7AB9828E833E180E991E05E
:1000C0000197F1F721503040C9F780E690E001D068
:1000D000E8CF0F931F93CF93DF93EC0100E010E084
:1000E000E0918000F0918100838181FD03C08FEF5A
:1000F0009FEF20C08991882371F0E0918000F091FA
:10010000810020853185BF01F9010995892B91F383
:100110000FEF1FEFEFCFE0918000F091810020857D
:100120003185BF018AE0F9010995892B11F00FEFA4
:100130001FEFC801DF91CF911F910F910895FFCF5D
:1001400048656C6C6F2C20776F726C64210A00001C
:0E015000000002000000002F00000000000070
:00000001FF
